:1000000019C028C027C026C025C024C023C022C0D4
:1000100021C020C01FC01EC01DC01CC01BC01AC0F4
:1000200019C018C017C016C015C014C013C012C024
:1000300011C010C011241FBECFEFCDBFDFE3DEBF64
:100040002EE3A0E0BEE301C01D92A030B207E1F7AD
:1000500002D015C0D5CF409A48982AE28CE29AE0A7
:10006000215080409040E1F70000489A2AE28CE25B
:100070009AE0215080409040E1F70000EDCFF894E5
:02008000FFCFB0
:00000001FF
